{
  "_format": "hh-sol-artifact-1",
  "contractName": "ComicsApeSocialClub",
  "sourceName": "contracts/ComicsApeSocialClub.sol",
  "abi": [
    {
      "inputs": [
        {
          "internalType": "string",
          "name": "uri",
          "type": "string"
        },
        {
          "internalType": "bytes32",
          "name": "merkleroot",
          "type": "bytes32"
        },
        {
          "internalType": "address",
          "name": "_proxyRegistryAddress",
          "type": "address"
        }
      ],
      "stateMutability": "nonpayable",
      "type": "constructor"
    },
    {
      "anonymous": false,
      "inputs": [
        {
          "indexed": true,
          "internalType": "address",
          "name": "owner",
          "type": "address"
        },
        {
          "indexed": true,
          "internalType": "address",
          "name": "approved",
          "type": "address"
        },
        {
          "indexed": true,
          "internalType": "uint256",
          "name": "tokenId",
          "type": "uint256"
        }
      ],
      "name": "Approval",
      "type": "event"
    },
    {
      "anonymous": false,
      "inputs": [
        {
          "indexed": true,
          "internalType": "address",
          "name": "owner",
          "type": "address"
        },
        {
          "indexed": true,
          "internalType": "address",
          "name": "operator",
          "type": "address"
        },
        {
          "indexed": false,
          "internalType": "bool",
          "name": "approved",
          "type": "bool"
        }
      ],
      "name": "ApprovalForAll",
      "type": "event"
    },
    {
      "anonymous": false,
      "inputs": [
        {
          "indexed": true,
          "internalType": "contract IERC20",
          "name": "token",
          "type": "address"
        },
        {
          "indexed": false,
          "internalType": "address",
          "name": "to",
          "type": "address"
        },
        {
          "indexed": false,
          "internalType": "uint256",
          "name": "amount",
          "type": "uint256"
        }
      ],
      "name": "ERC20PaymentReleased",
      "type": "event"
    },
    {
      "anonymous": false,
      "inputs": [
        {
          "indexed": true,
          "internalType": "address",
          "name": "previousOwner",
          "type": "address"
        },
        {
          "indexed": true,
          "internalType": "address",
          "name": "newOwner",
          "type": "address"
        }
      ],
      "name": "OwnershipTransferred",
      "type": "event"
    },
    {
      "anonymous": false,
      "inputs": [
        {
          "indexed": false,
          "internalType": "address",
          "name": "account",
          "type": "address"
        },
        {
          "indexed": false,
          "internalType": "uint256",
          "name": "shares",
          "type": "uint256"
        }
      ],
      "name": "PayeeAdded",
      "type": "event"
    },
    {
      "anonymous": false,
      "inputs": [
        {
          "indexed": false,
          "internalType": "address",
          "name": "from",
          "type": "address"
        },
        {
          "indexed": false,
          "internalType": "uint256",
          "name": "amount",
          "type": "uint256"
        }
      ],
      "name": "PaymentReceived",
      "type": "event"
    },
    {
      "anonymous": false,
      "inputs": [
        {
          "indexed": false,
          "internalType": "address",
          "name": "to",
          "type": "address"
        },
        {
          "indexed": false,
          "internalType": "uint256",
          "name": "amount",
          "type": "uint256"
        }
      ],
      "name": "PaymentReleased",
      "type": "event"
    },
    {
      "anonymous": false,
      "inputs": [
        {
          "indexed": true,
          "internalType": "address",
          "name": "from",
          "type": "address"
        },
        {
          "indexed": true,
          "internalType": "address",
          "name": "to",
          "type": "address"
        },
        {
          "indexed": true,
          "internalType": "uint256",
          "name": "tokenId",
          "type": "uint256"
        }
      ],
      "name": "Transfer",
      "type": "event"
    },
    {
      "inputs": [
        {
          "internalType": "address",
          "name": "",
          "type": "address"
        }
      ],
      "name": "_presaleClaimed",
      "outputs": [
        {
          "internalType": "uint256",
          "name": "",
          "type": "uint256"
        }
      ],
      "stateMutability": "view",
      "type": "function"
    },
    {
      "inputs": [
        {
          "internalType": "address",
          "name": "to",
          "type": "address"
        },
        {
          "internalType": "uint256",
          "name": "tokenId",
          "type": "uint256"
        }
      ],
      "name": "approve",
      "outputs": [],
      "stateMutability": "nonpayable",
      "type": "function"
    },
    {
      "inputs": [
        {
          "internalType": "address",
          "name": "owner",
          "type": "address"
        }
      ],
      "name": "balanceOf",
      "outputs": [
        {
          "internalType": "uint256",
          "name": "",
          "type": "uint256"
        }
      ],
      "stateMutability": "view",
      "type": "function"
    },
    {
      "inputs": [],
      "name": "baseExtension",
      "outputs": [
        {
          "internalType": "string",
          "name": "",
          "type": "string"
        }
      ],
      "stateMutability": "view",
      "type": "function"
    },
    {
      "inputs": [],
      "name": "baseURI",
      "outputs": [
        {
          "internalType": "string",
          "name": "",
          "type": "string"
        }
      ],
      "stateMutability": "view",
      "type": "function"
    },
    {
      "inputs": [
        {
          "internalType": "uint256",
          "name": "tokenId",
          "type": "uint256"
        }
      ],
      "name": "getApproved",
      "outputs": [
        {
          "internalType": "address",
          "name": "",
          "type": "address"
        }
      ],
      "stateMutability": "view",
      "type": "function"
    },
    {
      "inputs": [
        {
          "internalType": "address",
          "name": "owner",
          "type": "address"
        },
        {
          "internalType": "address",
          "name": "operator",
          "type": "address"
        }
      ],
      "name": "isApprovedForAll",
      "outputs": [
        {
          "internalType": "bool",
          "name": "",
          "type": "bool"
        }
      ],
      "stateMutability": "view",
      "type": "function"
    },
    {
      "inputs": [],
      "name": "maxSupply",
      "outputs": [
        {
          "internalType": "uint256",
          "name": "",
          "type": "uint256"
        }
      ],
      "stateMutability": "view",
      "type": "function"
    },
    {
      "inputs": [],
      "name": "maxpreSupply",
      "outputs": [
        {
          "internalType": "uint256",
          "name": "",
          "type": "uint256"
        }
      ],
      "stateMutability": "view",
      "type": "function"
    },
    {
      "inputs": [],
      "name": "name",
      "outputs": [
        {
          "internalType": "string",
          "name": "",
          "type": "string"
        }
      ],
      "stateMutability": "view",
      "type": "function"
    },
    {
      "inputs": [],
      "name": "notRevealedUri",
      "outputs": [
        {
          "internalType": "string",
          "name": "",
          "type": "string"
        }
      ],
      "stateMutability": "view",
      "type": "function"
    },
    {
      "inputs": [],
      "name": "owner",
      "outputs": [
        {
          "internalType": "address",
          "name": "",
          "type": "address"
        }
      ],
      "stateMutability": "view",
      "type": "function"
    },
    {
      "inputs": [
        {
          "internalType": "uint256",
          "name": "tokenId",
          "type": "uint256"
        }
      ],
      "name": "ownerOf",
      "outputs": [
        {
          "internalType": "address",
          "name": "",
          "type": "address"
        }
      ],
      "stateMutability": "view",
      "type": "function"
    },
    {
      "inputs": [],
      "name": "paused",
      "outputs": [
        {
          "internalType": "bool",
          "name": "",
          "type": "bool"
        }
      ],
      "stateMutability": "view",
      "type": "function"
    },
    {
      "inputs": [
        {
          "internalType": "uint256",
          "name": "index",
          "type": "uint256"
        }
      ],
      "name": "payee",
      "outputs": [
        {
          "internalType": "address",
          "name": "",
          "type": "address"
        }
      ],
      "stateMutability": "view",
      "type": "function"
    },
    {
      "inputs": [],
      "name": "presaleM",
      "outputs": [
        {
          "internalType": "bool",
          "name": "",
          "type": "bool"
        }
      ],
      "stateMutability": "view",
      "type": "function"
    },
    {
      "inputs": [
        {
          "internalType": "address",
          "name": "account",
          "type": "address"
        },
        {
          "internalType": "uint256",
          "name": "_amount",
          "type": "uint256"
        },
        {
          "internalType": "bytes32[]",
          "name": "_proof",
          "type": "bytes32[]"
        }
      ],
      "name": "presaleMint",
      "outputs": [],
      "stateMutability": "payable",
      "type": "function"
    },
    {
      "inputs": [],
      "name": "publicM",
      "outputs": [
        {
          "internalType": "bool",
          "name": "",
          "type": "bool"
        }
      ],
      "stateMutability": "view",
      "type": "function"
    },
    {
      "inputs": [
        {
          "internalType": "uint256",
          "name": "_amount",
          "type": "uint256"
        }
      ],
      "name": "publicSaleMint",
      "outputs": [],
      "stateMutability": "payable",
      "type": "function"
    },
    {
      "inputs": [
        {
          "internalType": "address payable",
          "name": "account",
          "type": "address"
        }
      ],
      "name": "release",
      "outputs": [],
      "stateMutability": "nonpayable",
      "type": "function"
    },
    {
      "inputs": [
        {
          "internalType": "contract IERC20",
          "name": "token",
          "type": "address"
        },
        {
          "internalType": "address",
          "name": "account",
          "type": "address"
        }
      ],
      "name": "release",
      "outputs": [],
      "stateMutability": "nonpayable",
      "type": "function"
    },
    {
      "inputs": [
        {
          "internalType": "contract IERC20",
          "name": "token",
          "type": "address"
        },
        {
          "internalType": "address",
          "name": "account",
          "type": "address"
        }
      ],
      "name": "released",
      "outputs": [
        {
          "internalType": "uint256",
          "name": "",
          "type": "uint256"
        }
      ],
      "stateMutability": "view",
      "type": "function"
    },
    {
      "inputs": [
        {
          "internalType": "address",
          "name": "account",
          "type": "address"
        }
      ],
      "name": "released",
      "outputs": [
        {
          "internalType": "uint256",
          "name": "",
          "type": "uint256"
        }
      ],
      "stateMutability": "view",
      "type": "function"
    },
    {
      "inputs": [],
      "name": "renounceOwnership",
      "outputs": [],
      "stateMutability": "nonpayable",
      "type": "function"
    },
    {
      "inputs": [],
      "name": "reveal",
      "outputs": [],
      "stateMutability": "nonpayable",
      "type": "function"
    },
    {
      "inputs": [],
      "name": "revealed",
      "outputs": [
        {
          "internalType": "bool",
          "name": "",
          "type": "bool"
        }
      ],
      "stateMutability": "view",
      "type": "function"
    },
    {
      "inputs": [],
      "name": "root",
      "outputs": [
        {
          "internalType": "bytes32",
          "name": "",
          "type": "bytes32"
        }
      ],
      "stateMutability": "view",
      "type": "function"
    },
    {
      "inputs": [
        {
          "internalType": "address",
          "name": "from",
          "type": "address"
        },
        {
          "internalType": "address",
          "name": "to",
          "type": "address"
        },
        {
          "internalType": "uint256",
          "name": "tokenId",
          "type": "uint256"
        }
      ],
      "name": "safeTransferFrom",
      "outputs": [],
      "stateMutability": "nonpayable",
      "type": "function"
    },
    {
      "inputs": [
        {
          "internalType": "address",
          "name": "from",
          "type": "address"
        },
        {
          "internalType": "address",
          "name": "to",
          "type": "address"
        },
        {
          "internalType": "uint256",
          "name": "tokenId",
          "type": "uint256"
        },
        {
          "internalType": "bytes",
          "name": "_data",
          "type": "bytes"
        }
      ],
      "name": "safeTransferFrom",
      "outputs": [],
      "stateMutability": "nonpayable",
      "type": "function"
    },
    {
      "inputs": [
        {
          "internalType": "address",
          "name": "operator",
          "type": "address"
        },
        {
          "internalType": "bool",
          "name": "approved",
          "type": "bool"
        }
      ],
      "name": "setApprovalForAll",
      "outputs": [],
      "stateMutability": "nonpayable",
      "type": "function"
    },
    {
      "inputs": [
        {
          "internalType": "string",
          "name": "_newBaseExtension",
          "type": "string"
        }
      ],
      "name": "setBaseExtension",
      "outputs": [],
      "stateMutability": "nonpayable",
      "type": "function"
    },
    {
      "inputs": [
        {
          "internalType": "string",
          "name": "_tokenBaseURI",
          "type": "string"
        }
      ],
      "name": "setBaseURI",
      "outputs": [],
      "stateMutability": "nonpayable",
      "type": "function"
    },
    {
      "inputs": [
        {
          "internalType": "bytes32",
          "name": "merkleroot",
          "type": "bytes32"
        }
      ],
      "name": "setMerkleRoot",
      "outputs": [],
      "stateMutability": "nonpayable",
      "type": "function"
    },
    {
      "inputs": [
        {
          "internalType": "string",
          "name": "_notRevealedURI",
          "type": "string"
        }
      ],
      "name": "setNotRevealedURI",
      "outputs": [],
      "stateMutability": "nonpayable",
      "type": "function"
    },
    {
      "inputs": [
        {
          "internalType": "address",
          "name": "account",
          "type": "address"
        }
      ],
      "name": "shares",
      "outputs": [
        {
          "internalType": "uint256",
          "name": "",
          "type": "uint256"
        }
      ],
      "stateMutability": "view",
      "type": "function"
    },
    {
      "inputs": [
        {
          "internalType": "bytes4",
          "name": "interfaceId",
          "type": "bytes4"
        }
      ],
      "name": "supportsInterface",
      "outputs": [
        {
          "internalType": "bool",
          "name": "",
          "type": "bool"
        }
      ],
      "stateMutability": "view",
      "type": "function"
    },
    {
      "inputs": [],
      "name": "symbol",
      "outputs": [
        {
          "internalType": "string",
          "name": "",
          "type": "string"
        }
      ],
      "stateMutability": "view",
      "type": "function"
    },
    {
      "inputs": [],
      "name": "togglePause",
      "outputs": [],
      "stateMutability": "nonpayable",
      "type": "function"
    },
    {
      "inputs": [],
      "name": "togglePresale",
      "outputs": [],
      "stateMutability": "nonpayable",
      "type": "function"
    },
    {
      "inputs": [],
      "name": "togglePublicSale",
      "outputs": [],
      "stateMutability": "nonpayable",
      "type": "function"
    },
    {
      "inputs": [
        {
          "internalType": "uint256",
          "name": "tokenId",
          "type": "uint256"
        }
      ],
      "name": "tokenURI",
      "outputs": [
        {
          "internalType": "string",
          "name": "",
          "type": "string"
        }
      ],
      "stateMutability": "view",
      "type": "function"
    },
    {
      "inputs": [
        {
          "internalType": "contract IERC20",
          "name": "token",
          "type": "address"
        }
      ],
      "name": "totalReleased",
      "outputs": [
        {
          "internalType": "uint256",
          "name": "",
          "type": "uint256"
        }
      ],
      "stateMutability": "view",
      "type": "function"
    },
    {
      "inputs": [],
      "name": "totalReleased",
      "outputs": [
        {
          "internalType": "uint256",
          "name": "",
          "type": "uint256"
        }
      ],
      "stateMutability": "view",
      "type": "function"
    },
    {
      "inputs": [],
      "name": "totalShares",
      "outputs": [
        {
          "internalType": "uint256",
          "name": "",
          "type": "uint256"
        }
      ],
      "stateMutability": "view",
      "type": "function"
    },
    {
      "inputs": [],
      "name": "totalSupply",
      "outputs": [
        {
          "internalType": "uint256",
          "name": "",
          "type": "uint256"
        }
      ],
      "stateMutability": "view",
      "type": "function"
    },
    {
      "inputs": [
        {
          "internalType": "address",
          "name": "from",
          "type": "address"
        },
        {
          "internalType": "address",
          "name": "to",
          "type": "address"
        },
        {
          "internalType": "uint256",
          "name": "tokenId",
          "type": "uint256"
        }
      ],
      "name": "transferFrom",
      "outputs": [],
      "stateMutability": "nonpayable",
      "type": "function"
    },
    {
      "inputs": [
        {
          "internalType": "address",
          "name": "newOwner",
          "type": "address"
        }
      ],
      "name": "transferOwnership",
      "outputs": [],
      "stateMutability": "nonpayable",
      "type": "function"
    },
    {
      "inputs": [],
      "name": "withdraw",
      "outputs": [],
      "stateMutability": "payable",
      "type": "function"
    },
    {
      "stateMutability": "payable",
      "type": "receive"
    }
  ],
  "bytecode": "0x6115b36011556108ae601255610100604052604160808181529062003ae060a0398051620000369160149160209091019062000684565b5060408051808201909152600580825264173539b7b760d91b6020909201918252620000659160159162000684565b506016805463ffffffff191690556014601781905560185567016345785d8a0000601a5567011c37937e080000601b55604080516020810190915260648152620000b490601d90600162000713565b5060408051602081019091527328460cb80368b95c5ada918a737d7ccf928c4a668152620000e790601e90600162000756565b50348015620000f557600080fd5b5060405162003b2138038062003b218339810160408190526200011891620007f8565b601e8054806020026020016040519081016040528092919081815260200182805480156200017057602002820191906000526020600020905b81546001600160a01b0316815260019091019060200180831162000151575b5050505050601d805480602002602001604051908101604052809291908181526020018280548015620001c357602002820191906000526020600020905b815481526020019060010190808311620001ae575b5050604080518082018252601681527f436f6d6963732041706520536f6369616c20436c7562000000000000000000006020808301918252835180850190945260048452634341534360e01b9084015281519195509193506200022b92506000919062000684565b5080516200024190600190602084019062000684565b5050506200025e62000258620003cb60201b60201c565b620003cf565b60016007558051825114620002d55760405162461bcd60e51b815260206004820152603260248201527f5061796d656e7453706c69747465723a2070617965657320616e6420736861726044820152710cae640d8cadccee8d040dad2e6dac2e8c6d60731b60648201526084015b60405180910390fd5b6000825111620003285760405162461bcd60e51b815260206004820152601a60248201527f5061796d656e7453706c69747465723a206e6f207061796565730000000000006044820152606401620002cc565b60005b825181101562000394576200037f8382815181106200034e576200034e620008f3565b60200260200101518383815181106200036b576200036b620008f3565b60200260200101516200042160201b60201c565b806200038b816200091f565b9150506200032b565b505050600f829055601080546001600160a01b0319166001600160a01b038316179055620003c2836200060f565b50505062000995565b3390565b600680546001600160a01b038381166001600160a01b0319831681179093556040519116919082907f8be0079c531659141344cd1fd0a4f28419497f9722a3daafe3b4186f6b6457e090600090a35050565b6001600160a01b0382166200048e5760405162461bcd60e51b815260206004820152602c60248201527f5061796d656e7453706c69747465723a206163636f756e74206973207468652060448201526b7a65726f206164647265737360a01b6064820152608401620002cc565b60008111620004e05760405162461bcd60e51b815260206004820152601d60248201527f5061796d656e7453706c69747465723a207368617265732061726520300000006044820152606401620002cc565b6001600160a01b0382166000908152600a6020526040902054156200055c5760405162461bcd60e51b815260206004820152602b60248201527f5061796d656e7453706c69747465723a206163636f756e7420616c726561647960448201526a206861732073686172657360a81b6064820152608401620002cc565b600c8054600181019091557fdf6966c971051c3d54ec59162606531493a51404a002842f56009d7e5cf4a8c70180546001600160a01b0319166001600160a01b0384169081179091556000908152600a60205260409020819055600854620005c69082906200093d565b600855604080516001600160a01b0384168152602081018390527f40c340f65e17194d14ddddb073d3c9f888e3cb52b5aae0c6c7706b4fbc905fac910160405180910390a15050565b6006546001600160a01b031633146200066b5760405162461bcd60e51b815260206004820181905260248201527f4f776e61626c653a2063616c6c6572206973206e6f7420746865206f776e65726044820152606401620002cc565b80516200068090601390602084019062000684565b5050565b828054620006929062000958565b90600052602060002090601f016020900481019282620006b6576000855562000701565b82601f10620006d157805160ff191683800117855562000701565b8280016001018555821562000701579182015b8281111562000701578251825591602001919060010190620006e4565b506200070f929150620007ae565b5090565b82805482825590600052602060002090810192821562000701579160200282015b8281111562000701578251829060ff1690559160200191906001019062000734565b82805482825590600052602060002090810192821562000701579160200282015b828111156200070157825182546001600160a01b0319166001600160a01b0390911617825560209092019160019091019062000777565b5b808211156200070f5760008155600101620007af565b634e487b7160e01b600052604160045260246000fd5b80516001600160a01b0381168114620007f357600080fd5b919050565b6000806000606084860312156200080e57600080fd5b83516001600160401b03808211156200082657600080fd5b818601915086601f8301126200083b57600080fd5b815181811115620008505762000850620007c5565b604051601f8201601f19908116603f011681019083821181831017156200087b576200087b620007c5565b816040528281526020935089848487010111156200089857600080fd5b600091505b82821015620008bc57848201840151818301850152908301906200089d565b82821115620008ce5760008484830101525b8097505050508086015193505050620008ea60408501620007db565b90509250925092565b634e487b7160e01b600052603260045260246000fd5b634e487b7160e01b600052601160045260246000fd5b600060001982141562000936576200093662000909565b5060010190565b6000821982111562000953576200095362000909565b500190565b600181811c908216806200096d57607f821691505b602082108114156200098f57634e487b7160e01b600052602260045260246000fd5b50919050565b61313b80620009a56000396000f3fe6080604052600436106102975760003560e01c80638b83209b1161015a578063c6682862116100c1578063e222c7f91161007a578063e222c7f91461081d578063e33b7de314610832578063e985e9c514610847578063ebf0c71714610867578063f2c4ce1e1461087d578063f2fde38b1461089d57600080fd5b8063c668286214610746578063c87b56dd1461075b578063ce7c2ac21461077b578063d5abeb01146107b1578063d79779b2146107c7578063da3ef23f146107fd57600080fd5b8063a22cb46511610113578063a22cb465146106a8578063a45063c0146106c8578063a475b5dd146106e9578063b3ab66b0146106fe578063b88d4fde14610711578063c4ae31681461073157600080fd5b80638b83209b146105df5780638cc4de19146105ff5780638da5cb5b1461062c578063954dc3e31461064a57806395d89b411461065d5780639852595c1461067257600080fd5b80633ccfd60b116101fe5780635c975abb116101b75780635c975abb1461053b5780636352211e146105555780636c0360eb1461057557806370a082311461058a578063715018a6146105aa5780637cb64759146105bf57600080fd5b80633ccfd60b1461046e578063406072a91461047657806342842e0e146104bc57806348b75044146104dc57806351830227146104fc57806355f804b31461051b57600080fd5b80631798d58b116102505780631798d58b146103cf57806318160ddd146103ef578063191655871461040457806323b872dd1461042457806334393743146104445780633a98ef391461045957600080fd5b806301ffc9a7146102e557806303a24d8c1461031a57806306fdde031461033e578063081812fc14610360578063081c8c4414610398578063095ea7b3146103ad57600080fd5b366102e0577f6ef95f06320e7a25a04a175ca677b7052bdd97131872c2192525a629f51be77033604080516001600160a01b0390921682523460208301520160405180910390a1005b600080fd5b3480156102f157600080fd5b50610305610300366004612908565b6108bd565b60405190151581526020015b60405180910390f35b34801561032657600080fd5b5061033060125481565b604051908152602001610311565b34801561034a57600080fd5b5061035361090f565b604051610311919061297d565b34801561036c57600080fd5b5061038061037b366004612990565b6109a1565b6040516001600160a01b039091168152602001610311565b3480156103a457600080fd5b50610353610a3b565b3480156103b957600080fd5b506103cd6103c83660046129be565b610ac9565b005b3480156103db57600080fd5b506016546103059062010000900460ff1681565b3480156103fb57600080fd5b50610330610bdf565b34801561041057600080fd5b506103cd61041f3660046129ea565b610bef565b34801561043057600080fd5b506103cd61043f366004612a07565b610d1d565b34801561045057600080fd5b506103cd610d4e565b34801561046557600080fd5b50600854610330565b6103cd610d97565b34801561048257600080fd5b50610330610491366004612a48565b6001600160a01b039182166000908152600e6020908152604080832093909416825291909152205490565b3480156104c857600080fd5b506103cd6104d7366004612a07565b610e35565b3480156104e857600080fd5b506103cd6104f7366004612a48565b610e50565b34801561050857600080fd5b5060165461030590610100900460ff1681565b34801561052757600080fd5b506103cd610536366004612b0d565b611038565b34801561054757600080fd5b506016546103059060ff1681565b34801561056157600080fd5b50610380610570366004612990565b611079565b34801561058157600080fd5b506103536110f0565b34801561059657600080fd5b506103306105a53660046129ea565b6110fd565b3480156105b657600080fd5b506103cd611184565b3480156105cb57600080fd5b506103cd6105da366004612990565b6111ba565b3480156105eb57600080fd5b506103806105fa366004612990565b6111e9565b34801561060b57600080fd5b5061033061061a3660046129ea565b60196020526000908152604090205481565b34801561063857600080fd5b506006546001600160a01b0316610380565b6103cd610658366004612b56565b611219565b34801561066957600080fd5b5061035361150e565b34801561067e57600080fd5b5061033061068d3660046129ea565b6001600160a01b03166000908152600b602052604090205490565b3480156106b457600080fd5b506103cd6106c3366004612bf0565b61151d565b3480156106d457600080fd5b50601654610305906301000000900460ff1681565b3480156106f557600080fd5b506103cd611528565b6103cd61070c366004612990565b611563565b34801561071d57600080fd5b506103cd61072c366004612c1e565b611751565b34801561073d57600080fd5b506103cd611789565b34801561075257600080fd5b506103536117c7565b34801561076757600080fd5b50610353610776366004612990565b6117d4565b34801561078757600080fd5b506103306107963660046129ea565b6001600160a01b03166000908152600a602052604090205490565b3480156107bd57600080fd5b5061033060115481565b3480156107d357600080fd5b506103306107e23660046129ea565b6001600160a01b03166000908152600d602052604090205490565b34801561080957600080fd5b506103cd610818366004612b0d565b611953565b34801561082957600080fd5b506103cd611990565b34801561083e57600080fd5b50600954610330565b34801561085357600080fd5b50610305610862366004612a48565b6119db565b34801561087357600080fd5b50610330600f5481565b34801561088957600080fd5b506103cd610898366004612b0d565b611aab565b3480156108a957600080fd5b506103cd6108b83660046129ea565b611ae8565b60006001600160e01b031982166380ac58cd60e01b14806108ee57506001600160e01b03198216635b5e139f60e01b145b8061090957506301ffc9a760e01b6001600160e01b03198316145b92915050565b60606000805461091e90612c9e565b80601f016020809104026020016040519081016040528092919081815260200182805461094a90612c9e565b80156109975780601f1061096c57610100808354040283529160200191610997565b820191906000526020600020905b81548152906001019060200180831161097a57829003601f168201915b5050505050905090565b6000818152600260205260408120546001600160a01b0316610a1f5760405162461bcd60e51b815260206004820152602c60248201527f4552433732313a20617070726f76656420717565727920666f72206e6f6e657860448201526b34b9ba32b73a103a37b5b2b760a11b60648201526084015b60405180910390fd5b506000908152600460205260409020546001600160a01b031690565b60148054610a4890612c9e565b80601f0160208091040260200160405190810160405280929190818152602001828054610a7490612c9e565b8015610ac15780601f10610a9657610100808354040283529160200191610ac1565b820191906000526020600020905b815481529060010190602001808311610aa457829003601f168201915b505050505081565b6000610ad482611079565b9050806001600160a01b0316836001600160a01b03161415610b425760405162461bcd60e51b815260206004820152602160248201527f4552433732313a20617070726f76616c20746f2063757272656e74206f776e656044820152603960f91b6064820152608401610a16565b336001600160a01b0382161480610b5e5750610b5e81336119db565b610bd05760405162461bcd60e51b815260206004820152603860248201527f4552433732313a20617070726f76652063616c6c6572206973206e6f74206f7760448201527f6e6572206e6f7220617070726f76656420666f7220616c6c00000000000000006064820152608401610a16565b610bda8383611b80565b505050565b6000610bea601c5490565b905090565b6001600160a01b0381166000908152600a6020526040902054610c245760405162461bcd60e51b8152600401610a1690612cd9565b6000610c2f60095490565b610c399047612d35565b90506000610c668383610c61866001600160a01b03166000908152600b602052604090205490565b611bee565b905080610c855760405162461bcd60e51b8152600401610a1690612d4d565b6001600160a01b0383166000908152600b602052604081208054839290610cad908490612d35565b925050819055508060096000828254610cc69190612d35565b90915550610cd690508382611c2c565b604080516001600160a01b0385168152602081018390527fdf20fd1e76bc69d672e4814fafb2c449bba3a5369d8359adf9e05e6fde87b056910160405180910390a1505050565b610d273382611d45565b610d435760405162461bcd60e51b8152600401610a1690612d98565b610bda838383611e14565b6006546001600160a01b03163314610d785760405162461bcd60e51b8152600401610a1690612de9565b6016805462ff0000198116620100009182900460ff1615909102179055565b6006546001600160a01b03163314610dc15760405162461bcd60e51b8152600401610a1690612de9565b6000610dd56006546001600160a01b031690565b6001600160a01b03164760405160006040518083038185875af1925050503d8060008114610e1f576040519150601f19603f3d011682016040523d82523d6000602084013e610e24565b606091505b5050905080610e3257600080fd5b50565b610bda83838360405180602001604052806000815250611751565b6001600160a01b0381166000908152600a6020526040902054610e855760405162461bcd60e51b8152600401610a1690612cd9565b6001600160a01b0382166000908152600d60205260408120546040516370a0823160e01b81523060048201526001600160a01b038516906370a082319060240160206040518083038186803b158015610edd57600080fd5b505afa158015610ef1573d6000803e3d6000fd5b505050506040513d601f19601f82011682018060405250810190610f159190612e1e565b610f1f9190612d35565b90506000610f588383610c6187876001600160a01b039182166000908152600e6020908152604080832093909416825291909152205490565b905080610f775760405162461bcd60e51b8152600401610a1690612d4d565b6001600160a01b038085166000908152600e6020908152604080832093871683529290529081208054839290610fae908490612d35565b90915550506001600160a01b0384166000908152600d602052604081208054839290610fdb908490612d35565b90915550610fec9050848483611fb0565b604080516001600160a01b038581168252602082018490528616917f3be5b7a71e84ed12875d241991c70855ac5817d847039e17a9d895c1ceb0f18a910160405180910390a250505050565b6006546001600160a01b031633146110625760405162461bcd60e51b8152600401610a1690612de9565b8051611075906013906020840190612859565b5050565b6000818152600260205260408120546001600160a01b0316806109095760405162461bcd60e51b815260206004820152602960248201527f4552433732313a206f776e657220717565727920666f72206e6f6e657869737460448201526832b73a103a37b5b2b760b91b6064820152608401610a16565b60138054610a4890612c9e565b60006001600160a01b0382166111685760405162461bcd60e51b815260206004820152602a60248201527f4552433732313a2062616c616e636520717565727920666f7220746865207a65604482015269726f206164647265737360b01b6064820152608401610a16565b506001600160a01b031660009081526003602052604090205490565b6006546001600160a01b031633146111ae5760405162461bcd60e51b8152600401610a1690612de9565b6111b86000612002565b565b6006546001600160a01b031633146111e45760405162461bcd60e51b8152600401610a1690612de9565b600f55565b6000600c82815481106111fe576111fe612e37565b6000918252602090912001546001600160a01b031692915050565b818161129082828080602002602001604051908101604052809392919081815260200183836020028082843760009201919091525050600f546040516bffffffffffffffffffffffff193360601b166020820152909250603401905060405160208183030381529060405280519060200120612054565b15156001146112b15760405162461bcd60e51b8152600401610a1690612e4d565b3332146112d05760405162461bcd60e51b8152600401610a1690612e4d565b336001600160a01b038716146113165760405162461bcd60e51b815260206004820152600b60248201526a139bdd08185b1b1bddd95960aa1b6044820152606401610a16565b60165462010000900460ff1661135f5760405162461bcd60e51b815260206004820152600e60248201526d283932b9b0b6329034b99027a32360911b6044820152606401610a16565b60165460ff16156113a75760405162461bcd60e51b815260206004820152601260248201527110dbdb9d1c9858dd081a5cc81c185d5cd95960721b6044820152606401610a16565b6018548511156113c95760405162461bcd60e51b8152600401610a1690612e79565b601854336000908152601960205260409020546113e7908790612d35565b11156114055760405162461bcd60e51b8152600401610a1690612e79565b6000611410601c5490565b6012549091506114208783612d35565b11156114645760405162461bcd60e51b81526020600482015260136024820152721b585e081cdd5c1c1b1e48195e18d959591959606a1b6044820152606401610a16565b3486601b546114739190612eb0565b11156114ba5760405162461bcd60e51b8152602060048201526016602482015275139bdd08195b9bdd59da08195d1a195c9cc81cd95b9d60521b6044820152606401610a16565b33600090815260196020526040812080548892906114d9908490612d35565b90915550600090505b86811015611504576114f261206a565b806114fc81612ecf565b9150506114e2565b5050505050505050565b60606001805461091e90612c9e565b6110753383836120ef565b6006546001600160a01b031633146115525760405162461bcd60e51b8152600401610a1690612de9565b6016805461ff001916610100179055565b3332146115825760405162461bcd60e51b8152600401610a1690612e4d565b6016546301000000900460ff166115cf5760405162461bcd60e51b8152602060048201526011602482015270283ab13634b1a9b0b6329034b99027a32360791b6044820152606401610a16565b60165460ff16156116175760405162461bcd60e51b815260206004820152601260248201527110dbdb9d1c9858dd081a5cc81c185d5cd95960721b6044820152606401610a16565b6017548111156116395760405162461bcd60e51b8152600401610a1690612e79565b600081116116775760405162461bcd60e51b815260206004820152600b60248201526a1e995c9bc8185b5bdd5b9d60aa1b6044820152606401610a16565b6000611682601c5490565b6011549091506116928383612d35565b11156116d65760405162461bcd60e51b815260206004820152601360248201527213585e081cdd5c1c1b1e48195e18d959591959606a1b6044820152606401610a16565b3482601a546116e59190612eb0565b111561172c5760405162461bcd60e51b8152602060048201526016602482015275139bdd08195b9bdd59da08195d1a195c9cc81cd95b9d60521b6044820152606401610a16565b60005b82811015610bda5761173f61206a565b8061174981612ecf565b91505061172f565b61175b3383611d45565b6117775760405162461bcd60e51b8152600401610a1690612d98565b611783848484846121be565b50505050565b6006546001600160a01b031633146117b35760405162461bcd60e51b8152600401610a1690612de9565b6016805460ff19811660ff90911615179055565b60158054610a4890612c9e565b6000818152600260205260409020546060906001600160a01b03166118535760405162461bcd60e51b815260206004820152602f60248201527f4552433732314d657461646174613a2055524920717565727920666f72206e6f60448201526e3732bc34b9ba32b73a103a37b5b2b760891b6064820152608401610a16565b601654610100900460ff166118f4576014805461186f90612c9e565b80601f016020809104026020016040519081016040528092919081815260200182805461189b90612c9e565b80156118e85780601f106118bd576101008083540402835291602001916118e8565b820191906000526020600020905b8154815290600101906020018083116118cb57829003601f168201915b50505050509050919050565b60006118fe6121f1565b9050600081511161191e576040518060200160405280600081525061194c565b8061192884612200565b601560405160200161193c93929190612eea565b6040516020818303038152906040525b9392505050565b6006546001600160a01b0316331461197d5760405162461bcd60e51b8152600401610a1690612de9565b8051611075906015906020840190612859565b6006546001600160a01b031633146119ba5760405162461bcd60e51b8152600401610a1690612de9565b6016805463ff00000019811663010000009182900460ff1615909102179055565b60105460405163c455279160e01b81526001600160a01b03848116600483015260009281169190841690829063c45527919060240160206040518083038186803b158015611a2857600080fd5b505afa158015611a3c573d6000803e3d6000fd5b505050506040513d601f19601f82011682018060405250810190611a609190612fae565b6001600160a01b03161415611a79576001915050610909565b6001600160a01b0380851660009081526005602090815260408083209387168352929052205460ff165b949350505050565b6006546001600160a01b03163314611ad55760405162461bcd60e51b8152600401610a1690612de9565b8051611075906014906020840190612859565b6006546001600160a01b03163314611b125760405162461bcd60e51b8152600401610a1690612de9565b6001600160a01b038116611b775760405162461bcd60e51b815260206004820152602660248201527f4f776e61626c653a206e6577206f776e657220697320746865207a65726f206160448201526564647265737360d01b6064820152608401610a16565b610e3281612002565b600081815260046020526040902080546001600160a01b0319166001600160a01b0384169081179091558190611bb582611079565b6001600160a01b03167f8c5be1e5ebec7d5bd14f71427d1e84f3dd0314c0f7b2291e5b200ac8c7c3b92560405160405180910390a45050565b6008546001600160a01b0384166000908152600a602052604081205490918391611c189086612eb0565b611c229190612fe1565b611aa39190612ff5565b80471015611c7c5760405162461bcd60e51b815260206004820152601d60248201527f416464726573733a20696e73756666696369656e742062616c616e63650000006044820152606401610a16565b6000826001600160a01b03168260405160006040518083038185875af1925050503d8060008114611cc9576040519150601f19603f3d011682016040523d82523d6000602084013e611cce565b606091505b5050905080610bda5760405162461bcd60e51b815260206004820152603a60248201527f416464726573733a20756e61626c6520746f2073656e642076616c75652c207260448201527f6563697069656e74206d617920686176652072657665727465640000000000006064820152608401610a16565b6000818152600260205260408120546001600160a01b0316611dbe5760405162461bcd60e51b815260206004820152602c60248201527f4552433732313a206f70657261746f7220717565727920666f72206e6f6e657860448201526b34b9ba32b73a103a37b5b2b760a11b6064820152608401610a16565b6000611dc983611079565b9050806001600160a01b0316846001600160a01b03161480611e045750836001600160a01b0316611df9846109a1565b6001600160a01b0316145b80611aa35750611aa381856119db565b826001600160a01b0316611e2782611079565b6001600160a01b031614611e8b5760405162461bcd60e51b815260206004820152602560248201527f4552433732313a207472616e736665722066726f6d20696e636f72726563742060448201526437bbb732b960d91b6064820152608401610a16565b6001600160a01b038216611eed5760405162461bcd60e51b8152602060048201526024808201527f4552433732313a207472616e7366657220746f20746865207a65726f206164646044820152637265737360e01b6064820152608401610a16565b611ef8600082611b80565b6001600160a01b0383166000908152600360205260408120805460019290611f21908490612ff5565b90915550506001600160a01b0382166000908152600360205260408120805460019290611f4f908490612d35565b909155505060008181526002602052604080822080546001600160a01b0319166001600160a01b0386811691821790925591518493918716917fddf252ad1be2c89b69c2b068fc378daa952ba7f163c4a11628f55a4df523b3ef91a4505050565b604080516001600160a01b038416602482015260448082018490528251808303909101815260649091019091526020810180516001600160e01b031663a9059cbb60e01b179052610bda9084906122fe565b600680546001600160a01b038381166001600160a01b0319831681179093556040519116919082907f8be0079c531659141344cd1fd0a4f28419497f9722a3daafe3b4186f6b6457e090600090a35050565b60008261206185846123d0565b14949350505050565b600260075414156120bd5760405162461bcd60e51b815260206004820152601f60248201527f5265656e7472616e637947756172643a207265656e7472616e742063616c6c006044820152606401610a16565b60026007556120d0601c80546001019055565b60006120db601c5490565b90506120e73382612444565b506001600755565b816001600160a01b0316836001600160a01b031614156121515760405162461bcd60e51b815260206004820152601960248201527f4552433732313a20617070726f766520746f2063616c6c6572000000000000006044820152606401610a16565b6001600160a01b03838116600081815260056020908152604080832094871680845294825291829020805460ff191686151590811790915591519182527f17307eab39ab6107e8899845ad3d59bd9653f200f220920489ca2b5937696c31910160405180910390a3505050565b6121c9848484611e14565b6121d58484848461245e565b6117835760405162461bcd60e51b8152600401610a169061300c565b60606013805461091e90612c9e565b6060816122245750506040805180820190915260018152600360fc1b602082015290565b8160005b811561224e578061223881612ecf565b91506122479050600a83612fe1565b9150612228565b60008167ffffffffffffffff81111561226957612269612a81565b6040519080825280601f01601f191660200182016040528015612293576020820181803683370190505b5090505b8415611aa3576122a8600183612ff5565b91506122b5600a8661305e565b6122c0906030612d35565b60f81b8183815181106122d5576122d5612e37565b60200101906001600160f81b031916908160001a9053506122f7600a86612fe1565b9450612297565b6000612353826040518060400160405280602081526020017f5361666545524332303a206c6f772d6c6576656c2063616c6c206661696c6564815250856001600160a01b031661256b9092919063ffffffff16565b805190915015610bda57808060200190518101906123719190613072565b610bda5760405162461bcd60e51b815260206004820152602a60248201527f5361666545524332303a204552433230206f7065726174696f6e20646964206e6044820152691bdd081cdd58d8d9595960b21b6064820152608401610a16565b600081815b845181101561243c5760008582815181106123f2576123f2612e37565b602002602001015190508083116124185760008381526020829052604090209250612429565b600081815260208490526040902092505b508061243481612ecf565b9150506123d5565b509392505050565b61107582826040518060200160405280600081525061257a565b60006001600160a01b0384163b1561256057604051630a85bd0160e11b81526001600160a01b0385169063150b7a02906124a290339089908890889060040161308f565b602060405180830381600087803b1580156124bc57600080fd5b505af19250505080156124ec575060408051601f3d908101601f191682019092526124e9918101906130cc565b60015b612546573d80801561251a576040519150601f19603f3d011682016040523d82523d6000602084013e61251f565b606091505b50805161253e5760405162461bcd60e51b8152600401610a169061300c565b805181602001fd5b6001600160e01b031916630a85bd0160e11b149050611aa3565b506001949350505050565b6060611aa384846000856125ad565b61258483836126de565b612591600084848461245e565b610bda5760405162461bcd60e51b8152600401610a169061300c565b60608247101561260e5760405162461bcd60e51b815260206004820152602660248201527f416464726573733a20696e73756666696369656e742062616c616e636520666f6044820152651c8818d85b1b60d21b6064820152608401610a16565b6001600160a01b0385163b6126655760405162461bcd60e51b815260206004820152601d60248201527f416464726573733a2063616c6c20746f206e6f6e2d636f6e74726163740000006044820152606401610a16565b600080866001600160a01b0316858760405161268191906130e9565b60006040518083038185875af1925050503d80600081146126be576040519150601f19603f3d011682016040523d82523d6000602084013e6126c3565b606091505b50915091506126d3828286612820565b979650505050505050565b6001600160a01b0382166127345760405162461bcd60e51b815260206004820181905260248201527f4552433732313a206d696e7420746f20746865207a65726f20616464726573736044820152606401610a16565b6000818152600260205260409020546001600160a01b0316156127995760405162461bcd60e51b815260206004820152601c60248201527f4552433732313a20746f6b656e20616c7265616479206d696e746564000000006044820152606401610a16565b6001600160a01b03821660009081526003602052604081208054600192906127c2908490612d35565b909155505060008181526002602052604080822080546001600160a01b0319166001600160a01b03861690811790915590518392907fddf252ad1be2c89b69c2b068fc378daa952ba7f163c4a11628f55a4df523b3ef908290a45050565b6060831561282f57508161194c565b82511561283f5782518084602001fd5b8160405162461bcd60e51b8152600401610a16919061297d565b82805461286590612c9e565b90600052602060002090601f01602090048101928261288757600085556128cd565b82601f106128a057805160ff19168380011785556128cd565b828001600101855582156128cd579182015b828111156128cd5782518255916020019190600101906128b2565b506128d99291506128dd565b5090565b5b808211156128d957600081556001016128de565b6001600160e01b031981168114610e3257600080fd5b60006020828403121561291a57600080fd5b813561194c816128f2565b60005b83811015612940578181015183820152602001612928565b838111156117835750506000910152565b60008151808452612969816020860160208601612925565b601f01601f19169290920160200192915050565b60208152600061194c6020830184612951565b6000602082840312156129a257600080fd5b5035919050565b6001600160a01b0381168114610e3257600080fd5b600080604083850312156129d157600080fd5b82356129dc816129a9565b946020939093013593505050565b6000602082840312156129fc57600080fd5b813561194c816129a9565b600080600060608486031215612a1c57600080fd5b8335612a27816129a9565b92506020840135612a37816129a9565b929592945050506040919091013590565b60008060408385031215612a5b57600080fd5b8235612a66816129a9565b91506020830135612a76816129a9565b809150509250929050565b634e487b7160e01b600052604160045260246000fd5b600067ffffffffffffffff80841115612ab257612ab2612a81565b604051601f8501601f19908116603f01168101908282118183101715612ada57612ada612a81565b81604052809350858152868686011115612af357600080fd5b858560208301376000602087830101525050509392505050565b600060208284031215612b1f57600080fd5b813567ffffffffffffffff811115612b3657600080fd5b8201601f81018413612b4757600080fd5b611aa384823560208401612a97565b60008060008060608587031215612b6c57600080fd5b8435612b77816129a9565b935060208501359250604085013567ffffffffffffffff80821115612b9b57600080fd5b818701915087601f830112612baf57600080fd5b813581811115612bbe57600080fd5b8860208260051b8501011115612bd357600080fd5b95989497505060200194505050565b8015158114610e3257600080fd5b60008060408385031215612c0357600080fd5b8235612c0e816129a9565b91506020830135612a7681612be2565b60008060008060808587031215612c3457600080fd5b8435612c3f816129a9565b93506020850135612c4f816129a9565b925060408501359150606085013567ffffffffffffffff811115612c7257600080fd5b8501601f81018713612c8357600080fd5b612c9287823560208401612a97565b91505092959194509250565b600181811c90821680612cb257607f821691505b60208210811415612cd357634e487b7160e01b600052602260045260246000fd5b50919050565b60208082526026908201527f5061796d656e7453706c69747465723a206163636f756e7420686173206e6f2060408201526573686172657360d01b606082015260800190565b634e487b7160e01b600052601160045260246000fd5b60008219821115612d4857612d48612d1f565b500190565b6020808252602b908201527f5061796d656e7453706c69747465723a206163636f756e74206973206e6f742060408201526a191d59481c185e5b595b9d60aa1b606082015260800190565b60208082526031908201527f4552433732313a207472616e736665722063616c6c6572206973206e6f74206f6040820152701ddb995c881b9bdc88185c1c1c9bdd9959607a1b606082015260800190565b6020808252818101527f4f776e61626c653a2063616c6c6572206973206e6f7420746865206f776e6572604082015260600190565b600060208284031215612e3057600080fd5b5051919050565b634e487b7160e01b600052603260045260246000fd5b6020808252601290820152712737ba1030b63637bbb2b21037b934b3b4b760711b604082015260600190565b6020808252601d908201527f596f752063616e2774206d696e7420736f206d75636820746f6b656e73000000604082015260600190565b6000816000190483118215151615612eca57612eca612d1f565b500290565b6000600019821415612ee357612ee3612d1f565b5060010190565b600084516020612efd8285838a01612925565b855191840191612f108184848a01612925565b8554920191600090600181811c9080831680612f2d57607f831692505b858310811415612f4b57634e487b7160e01b85526022600452602485fd5b808015612f5f5760018114612f7057612f9d565b60ff19851688528388019550612f9d565b60008b81526020902060005b85811015612f955781548a820152908401908801612f7c565b505083880195505b50939b9a5050505050505050505050565b600060208284031215612fc057600080fd5b815161194c816129a9565b634e487b7160e01b600052601260045260246000fd5b600082612ff057612ff0612fcb565b500490565b60008282101561300757613007612d1f565b500390565b60208082526032908201527f4552433732313a207472616e7366657220746f206e6f6e20455243373231526560408201527131b2b4bb32b91034b6b83632b6b2b73a32b960711b606082015260800190565b60008261306d5761306d612fcb565b500690565b60006020828403121561308457600080fd5b815161194c81612be2565b6001600160a01b03858116825284166020820152604081018390526080606082018190526000906130c290830184612951565b9695505050505050565b6000602082840312156130de57600080fd5b815161194c816128f2565b600082516130fb818460208701612925565b919091019291505056fea26469706673582212202c302ee3733559ab500098585a8afc9fde372e5e396c72b2b0bdf358dd614b1464736f6c63430008090033697066733a2f2f516d66475145737a5179727563747a58314e62774a597a7a45756b50764d576a677050724a7a4d4e6362763133472f68696464656e2e6a736f6e",
  "linkReferences": {},
  "deployedLinkReferences": {}
}